:020000040800F2
:100000000050002021020008270200082B020008EF
:1000100043020008470200085F02000800000000D9
:10002000000000000000000000000000770200084F
:100030007B020008000000007F020008350800086D
:100040009102000891020008910200089102000844
:100050009102000891020008910200089102000834
:100060009102000891020008910200089102000824
:100070009102000891020008910200089102000814
:100080009102000891020008910200089102000804
:1000900091020008910200089102000891020008F4
:1000A00091020008910200089102000891020008E4
:1000B00091020008910200089102000891020008D4
:1000C00091020008910200089102000891020008C4
:1000D00091020008910200089102000891020008B4
:1000E000910200089102000891020008000000003F
:1000F0000000000000000000000000000000000000
:1001000000000000000000005FF808F100B583B0B7
:1001100000F0DEF8304B314A1360314A1360314B46
:10012000314A32498B4204D21168196004330432D7
:10013000F7E72A4B1A682E4B9A4200D0FEE7284B6D
:100140001A682C4B9A42F9D1234B2B4A13602B4A45
:1001500013602B4B02E000221A600433294A9342B9
:10016000F9D3254B1B6813B9244B1B6803B1FEE779
:1001700000F0BAF8694601A800F0A2F8224C234B1F
:10018000E41AA4100025AC4214DC214C214BE41AE3
:10019000A4100025AC4213DC0099019800F0A4FBE8
:1001A00005461D4C1D4BE41AA410002C0EDC2846FD
:1001B00000F084F8154B53F8253098470135E2E7F5
:1001C000144B53F8253098470135E3E7013C134BB6
:1001D00053F824309847E8E7BABADECA0000002096
:1001E00024000020000000200C0A00082800002045
:1001F0007856341232547698280000206801002086
:10020000280000206C010020BC020008BC0200088D
:10021000BC020008BC020008BC020008BC020008C6
:1002200008B5FFF773FF00BEFEE71EF0040F0CBF1A
:10023000EFF30880EFF309807146124A104700BEC1
:10024000FEE700BEFEE71EF0040F0CBFEFF30880D0
:10025000EFF3098071460C4A104700BEFEE71EF01E
:10026000040F0CBFEFF30880EFF309807146074AD3
:10027000104700BEFEE700BEFEE700BEFEE700BE80
:10028000FEE770473F0200085B02000873020008A7
:0402900000BEFEE7C7
:100294000C0A000800000020280000200C0A0008B6
:1002A4000000000000000000280000206C01002075
:0802B400000000000000000042
:1002BC00FEE7000001230360014B0B60704700BF99
:1002CC000400002008B500F073F8024A024B9A6053
:1002DC0008BD00BF0000000800ED00E008B500F00C
:1002EC008FF808BD82B00023019300932C4A136849
:1002FC0043F4803313602A4B1B6803F400330093E0
:10030C00019B01330193009B1BB9019BB3F5A06FBB
:10031C00F1D1234B1B6813F4003F06D0012300934B
:10032C00009B012B04D002B0704700230093F7E729
:10033C001C4B1A6842F010021A601A6822F0030271
:10034C001A601A6842F002021A60A3F580535A68C8
:10035C005A605A685A605A6842F480625A605A6805
:10036C0022F47C125A605A6842F4E8125A601A68F5
:10037C0042F080721A600A4B1B6813F0007FFAD0AF
:10038C00074B5A6822F003025A605A6842F0020284
:10039C005A60034B5B6803F00C03082BF9D1C2E7DE
:1003AC00001002400020024008B5FFF79BFF08BD7B
:1003BC0008B5104B1A6842F001021A6059680E4ACF
:1003CC000A405A601A6822F0847222F480321A6051
:1003DC001A6822F480221A605A6822F4FE025A60CB
:1003EC004FF41F029A60FFF7DFFF044B4FF00062DF
:1003FC009A6008BD001002400000FFF800ED00E01C
:10040C001F4B5B6803F00C03042B15D0082B17D083
:10041C001BB11C4B1C4A1A6002E01A4B1A4A1A6098
:10042C00174B5B68C3F30313184AD35CDAB2154954
:10043C000B68D3400B607047124B134A1A60EFE7FE
:10044C000F4A53685268C3F38343023312F4803F5C
:10045C000AD00B4A526812F4003F0BD00C4A02FB34
:10046C0003F3084A1360DBE7094A02FB03F3054A6E
:10047C001360D5E7044A02FB03F3024A1360CFE78B
:10048C00001002401C00002000127A000C0000201A
:10049C0000093D000246A0F13003D8B2092802D968
:1004AC00A2F13700C0B270472DE9F84F06464078EC
:1004BC00FFF7F0FF0746B078FFF7ECFF40EA0717AD
:1004CC00FFB2F078FFF7E6FF04463079FFF7E2FF62
:1004DC0005467079FFF7DEFF8046B079FFF7DAFF4B
:1004EC001F4A538840EA034040EA081848EA0528A6
:1004FC0048EA0438C2F80080002527E04FEA850B53
:10050C000BF10903F05CFFF7C5FF81460BF10A0301
:10051C00F05CFFF7BFFF82460BF10B03F05CFFF7BB
:10052C00B9FF04460BF10C0B16F80B00FFF7B2FFEA
:10053C00240344EA002000B240EA0A0000B240EA78
:10054C000910084B23F815000135EDB27A08AA42C0
:10055C00D4D80449404600F04BF8BDE8F88F00BFF2
:10056C00200000203000002008B5037A302B00D08A
:10057C0008BDFFF799FFFBE7154BDB6813F0010F84
:10058C00FAD1134B1B6913F0800F05D0104B114A95
:10059C005A6002F188325A600D4B1A6942F002021D
:1005AC001A61800200F1006058611A6942F0400241
:1005BC001A61074BDB6813F0010FFAD1044BDA68B0
:1005CC0042F02002DA601A6922F002021A617047C6
:1005DC00002002402301674510B5042404E02046A6
:1005EC00FFF7CAFF0134E4B23F2CF8D910BD00006C
:1005FC0030B4174BDB6813F0010FFAD1144B1B69A5
:10060C0013F0800F05D0124B124C5C6004F188344F
:10061C005C60002418E00E4D2B6943F001032B6144
:10062C0031F8143020F8023B094BDB6813F0010F52
:10063C00FAD1074BDD6845F02005DD601D6925F01A
:10064C0001051D610134E4B29442E4D330BC70471F
:10065C00002002402301674510B4012823D018B1B3
:10066C0002283FD010BC704707290FD90F29F9D8A1
:10067C00A1F10804A4000F23A3402A48016821EA31
:10068C00030302FA04F119430160EBE789000F231D
:10069C0003FA01F0244C236823EA000302FA01F167
:1006AC0019432160DEE707290FD90F29DAD8A1F108
:1006BC00080080000F2383401C4C216821EA0303AF
:1006CC0002FA00F119432160CCE789000F2303FAE9
:1006DC0001F0174C236823EA000302FA01F11943D5
:1006EC002160BFE707290FD90F29BBD8A1F1080357
:1006FC009B000F2098400F4C216821EA000002FA61
:10070C0003F101432160ADE789000F2303FA01F0E7
:10071C00094C236823EA000302FA01F11943216012
:10072C00A0E700BF0408014000080140040C014090
:10073C00000C01400410014000100140034B8122C9
:10074C001A60043300221A60704700BF0010024088
:10075C001F291CD801280BD010B1022810D07047CB
:10076C00012303FA01F10A4A13680B431360704723
:10077C00012303FA01F1074A13680B431360704716
:10078C00012303FA01F1044A13680B431360704709
:10079C00141002401C10024018100240064B1A683C
:1007AC0022F001021A601A6822F002021A601A681A
:1007BC0022F004021A60704710E000E0074B1A6840
:1007CC0022F001021A601A6822F002021A60002359
:1007DC00034A136004321360704700BF10E000E05E
:1007EC0014E000E010B40C4B1A6822F001021A60FD
:1007FC0000240A4A1460043A10601A6842F001029C
:10080C001A60074A11601A6842F002021A60054B1E
:10081C001C7010BC704700BF10E000E018E000E056
:10082C0064010020F800002008B5064B1B689847AF
:10083C00054B1B7813B1054B1B6808BDFFF7BEFFBA
:10084C00F9E700BF64010020F800002010E000E090
:10085C00084B45229A60DA6842F40052DA60DA6892
:10086C0042F00402DA60DA6842F00802DA60002230
:10087C001A60704700380140002208E006494B60BE
:10088C00054B1B6813F0400FFAD00132D2B2835CD7
:10089C00002BF3D1704700BF00380140054B1B689B
:1008AC0013F0200F04D0034B5B68037001207047DA
:1008BC00002070470038014008B5044B044A1A6008
:1008CC00044B1B68044A1360984708BD08ED00E010
:1008DC000010000804100008FC000020F8B5FFF719
:1008EC002DFF0E210220FFF733FF02210846FFF7F0
:1008FC002FFF04210020FFF72BFF0A2209210020E3
:10090C00FFF7AAFE04220A210020FFF7A5FEFFF73D
:10091C009FFFFFF743FF35493548FFF763FF01267B
:10092C0000273C4614E03348FFF7A6FF002611E0F1
:10093C0017B3314C2046FFF717FE2E48FFF79CFFEC
:10094C0023783A2B1CD0002428492948FFF74AFF6A
:10095C00002EE8D128482044FFF7A0FF05460128C7
:10096C00F6D1FFF72BFF244B1B5D242BE0D00D2B76
:10097C00EAD00134E4B2E7E7FFF72EFE2F46D8E7C2
:10098C006378302B01D00024DEE7A378302B01D024
:10099C000024D9E7E378302B01D00024D4E7237965
:1009AC00302B01D00024CFE76379302B01D0002409
:1009BC00CAE7A379302B11D1E379302B01D0002475
:1009CC00C2E7237A312B0BD1637A462B0AD1A37A57
:1009DC00462B09D1FFF770FF0024B5E70024B3E7DD
:1009EC000024B1E70024AFE70024ADE7C5080008F8
:1009FC0080C3C901080A0008000100204F4B000009
:100A0C00785634122C00002000000000000000007A
:100A1C0000000000010203040607080900A24A04B2
:080A2C00000000083254769826
:040000050800010DE1
:00000001FF
